{
    "_format": "hh-sol-artifact-1",
    "contractName": "Keys",
    "sourceName": "contracts/keys.sol",
    "abi": [
        {
            "inputs": [
                {
                    "internalType": "string",
                    "name": "baseURI",
                    "type": "string"
                }
            ],
            "stateMutability": "nonpayable",
            "type": "constructor"
        },
        {
            "anonymous": false,
            "inputs": [
                {
                    "indexed": true,
                    "internalType": "address",
                    "name": "owner",
                    "type": "address"
                },
                {
                    "indexed": true,
                    "internalType": "address",
                    "name": "approved",
                    "type": "address"
                },
                {
                    "indexed": true,
                    "internalType": "uint256",
                    "name": "tokenId",
                    "type": "uint256"
                }
            ],
            "name": "Approval",
            "type": "event"
        },
        {
            "anonymous": false,
            "inputs": [
                {
                    "indexed": true,
                    "internalType": "address",
                    "name": "owner",
                    "type": "address"
                },
                {
                    "indexed": true,
                    "internalType": "address",
                    "name": "operator",
                    "type": "address"
                },
                {
                    "indexed": false,
                    "internalType": "bool",
                    "name": "approved",
                    "type": "bool"
                }
            ],
            "name": "ApprovalForAll",
            "type": "event"
        },
        {
            "anonymous": false,
            "inputs": [
                {
                    "indexed": true,
                    "internalType": "address",
                    "name": "previousOwner",
                    "type": "address"
                },
                {
                    "indexed": true,
                    "internalType": "address",
                    "name": "newOwner",
                    "type": "address"
                }
            ],
            "name": "OwnershipTransferred",
            "type": "event"
        },
        {
            "anonymous": false,
            "inputs": [
                {
                    "indexed": true,
                    "internalType": "address",
                    "name": "from",
                    "type": "address"
                },
                {
                    "indexed": true,
                    "internalType": "address",
                    "name": "to",
                    "type": "address"
                },
                {
                    "indexed": true,
                    "internalType": "uint256",
                    "name": "tokenId",
                    "type": "uint256"
                }
            ],
            "name": "Transfer",
            "type": "event"
        },
        {
            "inputs": [],
            "name": "MAX_PER_MINT",
            "outputs": [
                {
                    "internalType": "uint256",
                    "name": "",
                    "type": "uint256"
                }
            ],
            "stateMutability": "view",
            "type": "function"
        },
        {
            "inputs": [],
            "name": "MAX_SUPPLY",
            "outputs": [
                {
                    "internalType": "uint256",
                    "name": "",
                    "type": "uint256"
                }
            ],
            "stateMutability": "view",
            "type": "function"
        },
        {
            "inputs": [],
            "name": "PRICE",
            "outputs": [
                {
                    "internalType": "uint256",
                    "name": "",
                    "type": "uint256"
                }
            ],
            "stateMutability": "view",
            "type": "function"
        },
        {
            "inputs": [
                {
                    "internalType": "address",
                    "name": "to",
                    "type": "address"
                },
                {
                    "internalType": "uint256",
                    "name": "tokenId",
                    "type": "uint256"
                }
            ],
            "name": "approve",
            "outputs": [],
            "stateMutability": "nonpayable",
            "type": "function"
        },
        {
            "inputs": [
                {
                    "internalType": "address",
                    "name": "owner",
                    "type": "address"
                }
            ],
            "name": "balanceOf",
            "outputs": [
                {
                    "internalType": "uint256",
                    "name": "",
                    "type": "uint256"
                }
            ],
            "stateMutability": "view",
            "type": "function"
        },
        {
            "inputs": [],
            "name": "baseTokenURI",
            "outputs": [
                {
                    "internalType": "string",
                    "name": "",
                    "type": "string"
                }
            ],
            "stateMutability": "view",
            "type": "function"
        },
        {
            "inputs": [
                {
                    "internalType": "uint256",
                    "name": "tokenId",
                    "type": "uint256"
                }
            ],
            "name": "getApproved",
            "outputs": [
                {
                    "internalType": "address",
                    "name": "",
                    "type": "address"
                }
            ],
            "stateMutability": "view",
            "type": "function"
        },
        {
            "inputs": [
                {
                    "internalType": "address",
                    "name": "owner",
                    "type": "address"
                },
                {
                    "internalType": "address",
                    "name": "operator",
                    "type": "address"
                }
            ],
            "name": "isApprovedForAll",
            "outputs": [
                {
                    "internalType": "bool",
                    "name": "",
                    "type": "bool"
                }
            ],
            "stateMutability": "view",
            "type": "function"
        },
        {
            "inputs": [
                {
                    "internalType": "uint256",
                    "name": "_count",
                    "type": "uint256"
                }
            ],
            "name": "mintNFTs",
            "outputs": [],
            "stateMutability": "payable",
            "type": "function"
        },
        {
            "inputs": [],
            "name": "name",
            "outputs": [
                {
                    "internalType": "string",
                    "name": "",
                    "type": "string"
                }
            ],
            "stateMutability": "view",
            "type": "function"
        },
        {
            "inputs": [],
            "name": "owner",
            "outputs": [
                {
                    "internalType": "address",
                    "name": "",
                    "type": "address"
                }
            ],
            "stateMutability": "view",
            "type": "function"
        },
        {
            "inputs": [
                {
                    "internalType": "uint256",
                    "name": "tokenId",
                    "type": "uint256"
                }
            ],
            "name": "ownerOf",
            "outputs": [
                {
                    "internalType": "address",
                    "name": "",
                    "type": "address"
                }
            ],
            "stateMutability": "view",
            "type": "function"
        },
        {
            "inputs": [],
            "name": "renounceOwnership",
            "outputs": [],
            "stateMutability": "nonpayable",
            "type": "function"
        },
        {
            "inputs": [
                {
                    "internalType": "address",
                    "name": "from",
                    "type": "address"
                },
                {
                    "internalType": "address",
                    "name": "to",
                    "type": "address"
                },
                {
                    "internalType": "uint256",
                    "name": "tokenId",
                    "type": "uint256"
                }
            ],
            "name": "safeTransferFrom",
            "outputs": [],
            "stateMutability": "nonpayable",
            "type": "function"
        },
        {
            "inputs": [
                {
                    "internalType": "address",
                    "name": "from",
                    "type": "address"
                },
                {
                    "internalType": "address",
                    "name": "to",
                    "type": "address"
                },
                {
                    "internalType": "uint256",
                    "name": "tokenId",
                    "type": "uint256"
                },
                {
                    "internalType": "bytes",
                    "name": "_data",
                    "type": "bytes"
                }
            ],
            "name": "safeTransferFrom",
            "outputs": [],
            "stateMutability": "nonpayable",
            "type": "function"
        },
        {
            "inputs": [
                {
                    "internalType": "address",
                    "name": "operator",
                    "type": "address"
                },
                {
                    "internalType": "bool",
                    "name": "approved",
                    "type": "bool"
                }
            ],
            "name": "setApprovalForAll",
            "outputs": [],
            "stateMutability": "nonpayable",
            "type": "function"
        },
        {
            "inputs": [
                {
                    "internalType": "string",
                    "name": "_baseTokenURI",
                    "type": "string"
                }
            ],
            "name": "setBaseURI",
            "outputs": [],
            "stateMutability": "nonpayable",
            "type": "function"
        },
        {
            "inputs": [
                {
                    "internalType": "bytes4",
                    "name": "interfaceId",
                    "type": "bytes4"
                }
            ],
            "name": "supportsInterface",
            "outputs": [
                {
                    "internalType": "bool",
                    "name": "",
                    "type": "bool"
                }
            ],
            "stateMutability": "view",
            "type": "function"
        },
        {
            "inputs": [],
            "name": "symbol",
            "outputs": [
                {
                    "internalType": "string",
                    "name": "",
                    "type": "string"
                }
            ],
            "stateMutability": "view",
            "type": "function"
        },
        {
            "inputs": [
                {
                    "internalType": "uint256",
                    "name": "index",
                    "type": "uint256"
                }
            ],
            "name": "tokenByIndex",
            "outputs": [
                {
                    "internalType": "uint256",
                    "name": "",
                    "type": "uint256"
                }
            ],
            "stateMutability": "view",
            "type": "function"
        },
        {
            "inputs": [
                {
                    "internalType": "address",
                    "name": "owner",
                    "type": "address"
                },
                {
                    "internalType": "uint256",
                    "name": "index",
                    "type": "uint256"
                }
            ],
            "name": "tokenOfOwnerByIndex",
            "outputs": [
                {
                    "internalType": "uint256",
                    "name": "",
                    "type": "uint256"
                }
            ],
            "stateMutability": "view",
            "type": "function"
        },
        {
            "inputs": [
                {
                    "internalType": "uint256",
                    "name": "tokenId",
                    "type": "uint256"
                }
            ],
            "name": "tokenURI",
            "outputs": [
                {
                    "internalType": "string",
                    "name": "",
                    "type": "string"
                }
            ],
            "stateMutability": "view",
            "type": "function"
        },
        {
            "inputs": [
                {
                    "internalType": "address",
                    "name": "_owner",
                    "type": "address"
                }
            ],
            "name": "tokensOfOwner",
            "outputs": [
                {
                    "internalType": "uint256[]",
                    "name": "",
                    "type": "uint256[]"
                }
            ],
            "stateMutability": "view",
            "type": "function"
        },
        {
            "inputs": [],
            "name": "totalSupply",
            "outputs": [
                {
                    "internalType": "uint256",
                    "name": "",
                    "type": "uint256"
                }
            ],
            "stateMutability": "view",
            "type": "function"
        },
        {
            "inputs": [
                {
                    "internalType": "address",
                    "name": "from",
                    "type": "address"
                },
                {
                    "internalType": "address",
                    "name": "to",
                    "type": "address"
                },
                {
                    "internalType": "uint256",
                    "name": "tokenId",
                    "type": "uint256"
                }
            ],
            "name": "transferFrom",
            "outputs": [],
            "stateMutability": "nonpayable",
            "type": "function"
        },
        {
            "inputs": [
                {
                    "internalType": "address",
                    "name": "newOwner",
                    "type": "address"
                }
            ],
            "name": "transferOwnership",
            "outputs": [],
            "stateMutability": "nonpayable",
            "type": "function"
        },
        {
            "inputs": [],
            "name": "withdraw",
            "outputs": [],
            "stateMutability": "payable",
            "type": "function"
        }
    ],
    "bytecode": "0x60806040523480156200001157600080fd5b50604051620046e2380380620046e28339818101604052810190620000379190620003d4565b6040518060400160405280600881526020017f4b657973204e46540000000000000000000000000000000000000000000000008152506040518060400160405280600281526020017f4b4e0000000000000000000000000000000000000000000000000000000000008152508160009080519060200190620000bb929190620002b2565b508060019080519060200190620000d4929190620002b2565b505050620000f7620000eb6200010f60201b60201c565b6200011760201b60201c565b6200010881620001dd60201b60201c565b506200060c565b600033905090565b6000600a60009054906101000a900473ffffffffffffffffffffffffffffffffffffffff16905081600a60006101000a81548173ffffffffffffffffffffffffffffffffffffffff021916908373ffffffffffffffffffffffffffffffffffffffff1602179055508173ffffffffffffffffffffffffffffffffffffffff168173ffffffffffffffffffffffffffffffffffffffff167f8be0079c531659141344cd1fd0a4f28419497f9722a3daafe3b4186f6b6457e060405160405180910390a35050565b620001ed6200010f60201b60201c565b73ffffffffffffffffffffffffffffffffffffffff16620002136200028860201b60201c565b73ffffffffffffffffffffffffffffffffffffffff16146200026c576040517f08c379a0000000000000000000000000000000000000000000000000000000008152600401620002639062000440565b60405180910390fd5b80600c908051906020019062000284929190620002b2565b5050565b6000600a60009054906101000a900473ffffffffffffffffffffffffffffffffffffffff16905090565b828054620002c09062000508565b90600052602060002090601f016020900481019282620002e4576000855562000330565b82601f10620002ff57805160ff191683800117855562000330565b8280016001018555821562000330579182015b828111156200032f57825182559160200191906001019062000312565b5b5090506200033f919062000343565b5090565b5b808211156200035e57600081600090555060010162000344565b5090565b60006200037962000373846200048b565b62000462565b9050828152602081018484840111156200039257600080fd5b6200039f848285620004d2565b509392505050565b600082601f830112620003b957600080fd5b8151620003cb84826020860162000362565b91505092915050565b600060208284031215620003e757600080fd5b600082015167ffffffffffffffff8111156200040257600080fd5b6200041084828501620003a7565b91505092915050565b600062000428602083620004c1565b91506200043582620005e3565b602082019050919050565b600060208201905081810360008301526200045b8162000419565b9050919050565b60006200046e62000481565b90506200047c82826200053e565b919050565b6000604051905090565b600067ffffffffffffffff821115620004a957620004a8620005a3565b5b620004b482620005d2565b9050602081019050919050565b600082825260208201905092915050565b60005b83811015620004f2578082015181840152602081019050620004d5565b8381111562000502576000848401525b50505050565b600060028204905060018216806200052157607f821691505b6020821081141562000538576200053762000574565b5b50919050565b6200054982620005d2565b810181811067ffffffffffffffff821117156200056b576200056a620005a3565b5b80604052505050565b7f4e487b7100000000000000000000000000000000000000000000000000000000600052602260045260246000fd5b7f4e487b7100000000000000000000000000000000000000000000000000000000600052604160045260246000fd5b6000601f19601f8301169050919050565b7f4f776e61626c653a2063616c6c6572206973206e6f7420746865206f776e6572600082015250565b6140c6806200061c6000396000f3fe60806040526004361061019c5760003560e01c806355f804b3116100ec57806395d89b411161008a578063c87b56dd11610064578063c87b56dd146105ac578063d547cfb7146105e9578063e985e9c514610614578063f2fde38b146106515761019c565b806395d89b411461052f578063a22cb4651461055a578063b88d4fde146105835761019c565b8063715018a6116100c6578063715018a6146104855780638462151c1461049c5780638d859f3e146104d95780638da5cb5b146105045761019c565b806355f804b3146103e25780636352211e1461040b57806370a08231146104485761019c565b806323b872dd116101595780633b4b1381116101335780633b4b1381146103565780633ccfd60b1461037257806342842e0e1461037c5780634f6ccce7146103a55761019c565b806323b872dd146102c55780632f745c59146102ee57806332cb6b0c1461032b5761019c565b806301ffc9a7146101a157806306fdde03146101de578063081812fc14610209578063095ea7b31461024657806309d42b301461026f57806318160ddd1461029a575b600080fd5b3480156101ad57600080fd5b506101c860048036038101906101c39190612c4c565b61067a565b6040516101d59190613267565b60405180910390f35b3480156101ea57600080fd5b506101f36106f4565b6040516102009190613282565b60405180910390f35b34801561021557600080fd5b50610230600480360381019061022b9190612cdf565b610786565b60405161023d91906131de565b60405180910390f35b34801561025257600080fd5b5061026d60048036038101906102689190612c10565b61080b565b005b34801561027b57600080fd5b50610284610923565b6040516102919190613584565b60405180910390f35b3480156102a657600080fd5b506102af610928565b6040516102bc9190613584565b60405180910390f35b3480156102d157600080fd5b506102ec60048036038101906102e79190612b0a565b610935565b005b3480156102fa57600080fd5b5061031560048036038101906103109190612c10565b610995565b6040516103229190613584565b60405180910390f35b34801561033757600080fd5b50610340610a3a565b60405161034d9190613584565b60405180910390f35b610370600480360381019061036b9190612cdf565b610a3f565b005b61037a610b79565b005b34801561038857600080fd5b506103a3600480360381019061039e9190612b0a565b610ced565b005b3480156103b157600080fd5b506103cc60048036038101906103c79190612cdf565b610d0d565b6040516103d99190613584565b60405180910390f35b3480156103ee57600080fd5b5061040960048036038101906104049190612c9e565b610da4565b005b34801561041757600080fd5b50610432600480360381019061042d9190612cdf565b610e3a565b60405161043f91906131de565b60405180910390f35b34801561045457600080fd5b5061046f600480360381019061046a9190612aa5565b610eec565b60405161047c9190613584565b60405180910390f35b34801561049157600080fd5b5061049a610fa4565b005b3480156104a857600080fd5b506104c360048036038101906104be9190612aa5565b61102c565b6040516104d09190613245565b60405180910390f35b3480156104e557600080fd5b506104ee611126565b6040516104fb9190613584565b60405180910390f35b34801561051057600080fd5b50610519611130565b60405161052691906131de565b60405180910390f35b34801561053b57600080fd5b5061054461115a565b6040516105519190613282565b60405180910390f35b34801561056657600080fd5b50610581600480360381019061057c9190612bd4565b6111ec565b005b34801561058f57600080fd5b506105aa60048036038101906105a59190612b59565b611202565b005b3480156105b857600080fd5b506105d360048036038101906105ce9190612cdf565b611264565b6040516105e09190613282565b60405180910390f35b3480156105f557600080fd5b506105fe61130b565b60405161060b9190613282565b60405180910390f35b34801561062057600080fd5b5061063b60048036038101906106369190612ace565b611399565b6040516106489190613267565b60405180910390f35b34801561065d57600080fd5b5061067860048036038101906106739190612aa5565b61142d565b005b60007f780e9d63000000000000000000000000000000000000000000000000000000007bffffffffffffffffffffffffffffffffffffffffffffffffffffffff1916827bffffffffffffffffffffffffffffffffffffffffffffffffffffffff191614806106ed57506106ec82611525565b5b9050919050565b60606000805461070390613878565b80601f016020809104026020016040519081016040528092919081815260200182805461072f90613878565b801561077c5780601f106107515761010080835404028352916020019161077c565b820191906000526020600020905b81548152906001019060200180831161075f57829003601f168201915b5050505050905090565b600061079182611607565b6107d0576040517f08c379a00000000000000000000000000000000000000000000000000000000081526004016107c7906134a4565b60405180910390fd5b6004600083815260200190815260200160002060009054906101000a900473ffffffffffffffffffffffffffffffffffffffff169050919050565b600061081682610e3a565b90508073ffffffffffffffffffffffffffffffffffffffff168373ffffffffffffffffffffffffffffffffffffffff161415610887576040517f08c379a000000000000000000000000000000000000000000000000000000000815260040161087e90613504565b60405180910390fd5b8073ffffffffffffffffffffffffffffffffffffffff166108a6611673565b73ffffffffffffffffffffffffffffffffffffffff1614806108d557506108d4816108cf611673565b611399565b5b610914576040517f08c379a000000000000000000000000000000000000000000000000000000000815260040161090b90613404565b60405180910390fd5b61091e838361167b565b505050565b600181565b6000600880549050905090565b610946610940611673565b82611734565b610985576040517f08c379a000000000000000000000000000000000000000000000000000000000815260040161097c90613544565b60405180910390fd5b610990838383611812565b505050565b60006109a083610eec565b82106109e1576040517f08c379a00000000000000000000000000000000000000000000000000000000081526004016109d8906132a4565b60405180910390fd5b600660008473ffffffffffffffffffffffffffffffffffffffff1673ffffffffffffffffffffffffffffffffffffffff168152602001908152602001600020600083815260200190815260200160002054905092915050565b600a81565b6000610a4b600b611a79565b9050600a610a628383611a8790919063ffffffff16565b1115610aa3576040517f08c379a0000000000000000000000000000000000000000000000000000000008152600401610a9a906133a4565b60405180910390fd5b600082118015610ab4575060018211155b610af3576040517f08c379a0000000000000000000000000000000000000000000000000000000008152600401610aea906133c4565b60405180910390fd5b610b0c82655af3107a4000611a9d90919063ffffffff16565b341015610b4e576040517f08c379a0000000000000000000000000000000000000000000000000000000008152600401610b4590613384565b60405180910390fd5b60005b82811015610b7457610b61611ab3565b8080610b6c906138db565b915050610b51565b505050565b610b81611673565b73ffffffffffffffffffffffffffffffffffffffff16610b9f611130565b73ffffffffffffffffffffffffffffffffffffffff1614610bf5576040517f08c379a0000000000000000000000000000000000000000000000000000000008152600401610bec906134c4565b60405180910390fd5b600047905060008111610c3d576040517f08c379a0000000000000000000000000000000000000000000000000000000008152600401610c3490613484565b60405180910390fd5b60003373ffffffffffffffffffffffffffffffffffffffff1682604051610c63906131c9565b60006040518083038185875af1925050503d8060008114610ca0576040519150601f19603f3d011682016040523d82523d6000602084013e610ca5565b606091505b5050905080610ce9576040517f08c379a0000000000000000000000000000000000000000000000000000000008152600401610ce090613524565b60405180910390fd5b5050565b610d0883838360405180602001604052806000815250611202565b505050565b6000610d17610928565b8210610d58576040517f08c379a0000000000000000000000000000000000000000000000000000000008152600401610d4f90613564565b60405180910390fd5b60088281548110610d92577f4e487b7100000000000000000000000000000000000000000000000000000000600052603260045260246000fd5b90600052602060002001549050919050565b610dac611673565b73ffffffffffffffffffffffffffffffffffffffff16610dca611130565b73ffffffffffffffffffffffffffffffffffffffff1614610e20576040517f08c379a0000000000000000000000000000000000000000000000000000000008152600401610e17906134c4565b60405180910390fd5b80600c9080519060200190610e369291906128c9565b5050565b6000806002600084815260200190815260200160002060009054906101000a900473ffffffffffffffffffffffffffffffffffffffff169050600073ffffffffffffffffffffffffffffffffffffffff168173ffffffffffffffffffffffffffffffffffffffff161415610ee3576040517f08c379a0000000000000000000000000000000000000000000000000000000008152600401610eda90613444565b60405180910390fd5b80915050919050565b60008073ffffffffffffffffffffffffffffffffffffffff168273ffffffffffffffffffffffffffffffffffffffff161415610f5d576040517f08c379a0000000000000000000000000000000000000000000000000000000008152600401610f5490613424565b60405180910390fd5b600360008373ffffffffffffffffffffffffffffffffffffffff1673ffffffffffffffffffffffffffffffffffffffff168152602001908152602001600020549050919050565b610fac611673565b73ffffffffffffffffffffffffffffffffffffffff16610fca611130565b73ffffffffffffffffffffffffffffffffffffffff1614611020576040517f08c379a0000000000000000000000000000000000000000000000000000000008152600401611017906134c4565b60405180910390fd5b61102a6000611ad8565b565b6060600061103983610eec565b905060008167ffffffffffffffff81111561107d577f4e487b7100000000000000000000000000000000000000000000000000000000600052604160045260246000fd5b6040519080825280602002602001820160405280156110ab5781602001602082028036833780820191505090505b50905060005b8281101561111b576110c38582610995565b8282815181106110fc577f4e487b7100000000000000000000000000000000000000000000000000000000600052603260045260246000fd5b6020026020010181815250508080611113906138db565b9150506110b1565b508092505050919050565b655af3107a400081565b6000600a60009054906101000a900473ffffffffffffffffffffffffffffffffffffffff16905090565b60606001805461116990613878565b80601f016020809104026020016040519081016040528092919081815260200182805461119590613878565b80156111e25780601f106111b7576101008083540402835291602001916111e2565b820191906000526020600020905b8154815290600101906020018083116111c557829003601f168201915b5050505050905090565b6111fe6111f7611673565b8383611b9e565b5050565b61121361120d611673565b83611734565b611252576040517f08c379a000000000000000000000000000000000000000000000000000000000815260040161124990613544565b60405180910390fd5b61125e84848484611d0b565b50505050565b606061126f82611607565b6112ae576040517f08c379a00000000000000000000000000000000000000000000000000000000081526004016112a5906134e4565b60405180910390fd5b60006112b8611d67565b905060008151116112d85760405180602001604052806000815250611303565b806112e284611df9565b6040516020016112f39291906131a5565b6040516020818303038152906040525b915050919050565b600c805461131890613878565b80601f016020809104026020016040519081016040528092919081815260200182805461134490613878565b80156113915780601f1061136657610100808354040283529160200191611391565b820191906000526020600020905b81548152906001019060200180831161137457829003601f168201915b505050505081565b6000600560008473ffffffffffffffffffffffffffffffffffffffff1673ffffffffffffffffffffffffffffffffffffffff16815260200190815260200160002060008373ffffffffffffffffffffffffffffffffffffffff1673ffffffffffffffffffffffffffffffffffffffff16815260200190815260200160002060009054906101000a900460ff16905092915050565b611435611673565b73ffffffffffffffffffffffffffffffffffffffff16611453611130565b73ffffffffffffffffffffffffffffffffffffffff16146114a9576040517f08c379a00000000000000000000000000000000000000000000000000000000081526004016114a0906134c4565b60405180910390fd5b600073ffffffffffffffffffffffffffffffffffffffff168173ffffffffffffffffffffffffffffffffffffffff161415611519576040517f08c379a0000000000000000000000000000000000000000000000000000000008152600401611510906132e4565b60405180910390fd5b61152281611ad8565b50565b60007f80ac58cd000000000000000000000000000000000000000000000000000000007bffffffffffffffffffffffffffffffffffffffffffffffffffffffff1916827bffffffffffffffffffffffffffffffffffffffffffffffffffffffff191614806115f057507f5b5e139f000000000000000000000000000000000000000000000000000000007bffffffffffffffffffffffffffffffffffffffffffffffffffffffff1916827bffffffffffffffffffffffffffffffffffffffffffffffffffffffff1916145b8061160057506115ff82611fa6565b5b9050919050565b60008073ffffffffffffffffffffffffffffffffffffffff166002600084815260200190815260200160002060009054906101000a900473ffffffffffffffffffffffffffffffffffffffff1673ffffffffffffffffffffffffffffffffffffffff1614159050919050565b600033905090565b816004600083815260200190815260200160002060006101000a81548173ffffffffffffffffffffffffffffffffffffffff021916908373ffffffffffffffffffffffffffffffffffffffff160217905550808273ffffffffffffffffffffffffffffffffffffffff166116ee83610e3a565b73ffffffffffffffffffffffffffffffffffffffff167f8c5be1e5ebec7d5bd14f71427d1e84f3dd0314c0f7b2291e5b200ac8c7c3b92560405160405180910390a45050565b600061173f82611607565b61177e576040517f08c379a0000000000000000000000000000000000000000000000000000000008152600401611775906133e4565b60405180910390fd5b600061178983610e3a565b90508073ffffffffffffffffffffffffffffffffffffffff168473ffffffffffffffffffffffffffffffffffffffff1614806117f857508373ffffffffffffffffffffffffffffffffffffffff166117e084610786565b73ffffffffffffffffffffffffffffffffffffffff16145b8061180957506118088185611399565b5b91505092915050565b8273ffffffffffffffffffffffffffffffffffffffff1661183282610e3a565b73ffffffffffffffffffffffffffffffffffffffff1614611888576040517f08c379a000000000000000000000000000000000000000000000000000000000815260040161187f90613304565b60405180910390fd5b600073ffffffffffffffffffffffffffffffffffffffff168273ffffffffffffffffffffffffffffffffffffffff1614156118f8576040517f08c379a00000000000000000000000000000000000000000000000000000000081526004016118ef90613344565b60405180910390fd5b611903838383612010565b61190e60008261167b565b6001600360008573ffffffffffffffffffffffffffffffffffffffff1673ffffffffffffffffffffffffffffffffffffffff168152602001908152602001600020600082825461195e919061378e565b925050819055506001600360008473ffffffffffffffffffffffffffffffffffffffff1673ffffffffffffffffffffffffffffffffffffffff16815260200190815260200160002060008282546119b591906136ad565b92505081905550816002600083815260200190815260200160002060006101000a81548173ffffffffffffffffffffffffffffffffffffffff021916908373ffffffffffffffffffffffffffffffffffffffff160217905550808273ffffffffffffffffffffffffffffffffffffffff168473ffffffffffffffffffffffffffffffffffffffff167fddf252ad1be2c89b69c2b068fc378daa952ba7f163c4a11628f55a4df523b3ef60405160405180910390a4611a74838383612124565b505050565b600081600001549050919050565b60008183611a9591906136ad565b905092915050565b60008183611aab9190613734565b905092915050565b6000611abf600b611a79565b9050611acb3382612129565b611ad5600b612147565b50565b6000600a60009054906101000a900473ffffffffffffffffffffffffffffffffffffffff16905081600a60006101000a81548173ffffffffffffffffffffffffffffffffffffffff021916908373ffffffffffffffffffffffffffffffffffffffff1602179055508173ffffffffffffffffffffffffffffffffffffffff168173ffffffffffffffffffffffffffffffffffffffff167f8be0079c531659141344cd1fd0a4f28419497f9722a3daafe3b4186f6b6457e060405160405180910390a35050565b8173ffffffffffffffffffffffffffffffffffffffff168373ffffffffffffffffffffffffffffffffffffffff161415611c0d576040517f08c379a0000000000000000000000000000000000000000000000000000000008152600401611c0490613364565b60405180910390fd5b80600560008573ffffffffffffffffffffffffffffffffffffffff1673ffffffffffffffffffffffffffffffffffffffff16815260200190815260200160002060008473ffffffffffffffffffffffffffffffffffffffff1673ffffffffffffffffffffffffffffffffffffffff16815260200190815260200160002060006101000a81548160ff0219169083151502179055508173ffffffffffffffffffffffffffffffffffffffff168373ffffffffffffffffffffffffffffffffffffffff167f17307eab39ab6107e8899845ad3d59bd9653f200f220920489ca2b5937696c3183604051611cfe9190613267565b60405180910390a3505050565b611d16848484611812565b611d228484848461215d565b611d61576040517f08c379a0000000000000000000000000000000000000000000000000000000008152600401611d58906132c4565b60405180910390fd5b50505050565b6060600c8054611d7690613878565b80601f0160208091040260200160405190810160405280929190818152602001828054611da290613878565b8015611def5780601f10611dc457610100808354040283529160200191611def565b820191906000526020600020905b815481529060010190602001808311611dd257829003601f168201915b5050505050905090565b60606000821415611e41576040518060400160405280600181526020017f30000000000000000000000000000000000000000000000000000000000000008152509050611fa1565b600082905060005b60008214611e73578080611e5c906138db565b915050600a82611e6c9190613703565b9150611e49565b60008167ffffffffffffffff811115611eb5577f4e487b7100000000000000000000000000000000000000000000000000000000600052604160045260246000fd5b6040519080825280601f01601f191660200182016040528015611ee75781602001600182028036833780820191505090505b5090505b60008514611f9a57600182611f00919061378e565b9150600a85611f0f9190613924565b6030611f1b91906136ad565b60f81b818381518110611f57577f4e487b7100000000000000000000000000000000000000000000000000000000600052603260045260246000fd5b60200101907effffffffffffffffffffffffffffffffffffffffffffffffffffffffffffff1916908160001a905350600a85611f939190613703565b9450611eeb565b8093505050505b919050565b60007f01ffc9a7000000000000000000000000000000000000000000000000000000007bffffffffffffffffffffffffffffffffffffffffffffffffffffffff1916827bffffffffffffffffffffffffffffffffffffffffffffffffffffffff1916149050919050565b61201b8383836122f4565b600073ffffffffffffffffffffffffffffffffffffffff168373ffffffffffffffffffffffffffffffffffffffff16141561205e57612059816122f9565b61209d565b8173ffffffffffffffffffffffffffffffffffffffff168373ffffffffffffffffffffffffffffffffffffffff161461209c5761209b8382612342565b5b5b600073ffffffffffffffffffffffffffffffffffffffff168273ffffffffffffffffffffffffffffffffffffffff1614156120e0576120db816124af565b61211f565b8273ffffffffffffffffffffffffffffffffffffffff168273ffffffffffffffffffffffffffffffffffffffff161461211e5761211d82826125f2565b5b5b505050565b505050565b612143828260405180602001604052806000815250612671565b5050565b6001816000016000828254019250508190555050565b600061217e8473ffffffffffffffffffffffffffffffffffffffff166126cc565b156122e7578373ffffffffffffffffffffffffffffffffffffffff1663150b7a026121a7611673565b8786866040518563ffffffff1660e01b81526004016121c994939291906131f9565b602060405180830381600087803b1580156121e357600080fd5b505af192505050801561221457506040513d601f19601f820116820180604052508101906122119190612c75565b60015b612297573d8060008114612244576040519150601f19603f3d011682016040523d82523d6000602084013e612249565b606091505b5060008151141561228f576040517f08c379a0000000000000000000000000000000000000000000000000000000008152600401612286906132c4565b60405180910390fd5b805181602001fd5b63150b7a0260e01b7bffffffffffffffffffffffffffffffffffffffffffffffffffffffff1916817bffffffffffffffffffffffffffffffffffffffffffffffffffffffff1916149150506122ec565b600190505b949350505050565b505050565b6008805490506009600083815260200190815260200160002081905550600881908060018154018082558091505060019003906000526020600020016000909190919091505550565b6000600161234f84610eec565b612359919061378e565b905060006007600084815260200190815260200160002054905081811461243e576000600660008673ffffffffffffffffffffffffffffffffffffffff1673ffffffffffffffffffffffffffffffffffffffff168152602001908152602001600020600084815260200190815260200160002054905080600660008773ffffffffffffffffffffffffffffffffffffffff1673ffffffffffffffffffffffffffffffffffffffff168152602001908152602001600020600084815260200190815260200160002081905550816007600083815260200190815260200160002081905550505b6007600084815260200190815260200160002060009055600660008573ffffffffffffffffffffffffffffffffffffffff1673ffffffffffffffffffffffffffffffffffffffff16815260200190815260200160002060008381526020019081526020016000206000905550505050565b600060016008805490506124c3919061378e565b9050600060096000848152602001908152602001600020549050600060088381548110612519577f4e487b7100000000000000000000000000000000000000000000000000000000600052603260045260246000fd5b906000526020600020015490508060088381548110612561577f4e487b7100000000000000000000000000000000000000000000000000000000600052603260045260246000fd5b9060005260206000200181905550816009600083815260200190815260200160002081905550600960008581526020019081526020016000206000905560088054806125d6577f4e487b7100000000000000000000000000000000000000000000000000000000600052603160045260246000fd5b6001900381819060005260206000200160009055905550505050565b60006125fd83610eec565b905081600660008573ffffffffffffffffffffffffffffffffffffffff1673ffffffffffffffffffffffffffffffffffffffff168152602001908152602001600020600083815260200190815260200160002081905550806007600084815260200190815260200160002081905550505050565b61267b83836126ef565b612688600084848461215d565b6126c7576040517f08c379a00000000000000000000000000000000000000000000000000000000081526004016126be906132c4565b60405180910390fd5b505050565b6000808273ffffffffffffffffffffffffffffffffffffffff163b119050919050565b600073ffffffffffffffffffffffffffffffffffffffff168273ffffffffffffffffffffffffffffffffffffffff16141561275f576040517f08c379a000000000000000000000000000000000000000000000000000000000815260040161275690613464565b60405180910390fd5b61276881611607565b156127a8576040517f08c379a000000000000000000000000000000000000000000000000000000000815260040161279f90613324565b60405180910390fd5b6127b460008383612010565b6001600360008473ffffffffffffffffffffffffffffffffffffffff1673ffffffffffffffffffffffffffffffffffffffff168152602001908152602001600020600082825461280491906136ad565b92505081905550816002600083815260200190815260200160002060006101000a81548173ffffffffffffffffffffffffffffffffffffffff021916908373ffffffffffffffffffffffffffffffffffffffff160217905550808273ffffffffffffffffffffffffffffffffffffffff16600073ffffffffffffffffffffffffffffffffffffffff167fddf252ad1be2c89b69c2b068fc378daa952ba7f163c4a11628f55a4df523b3ef60405160405180910390a46128c560008383612124565b5050565b8280546128d590613878565b90600052602060002090601f0160209004810192826128f7576000855561293e565b82601f1061291057805160ff191683800117855561293e565b8280016001018555821561293e579182015b8281111561293d578251825591602001919060010190612922565b5b50905061294b919061294f565b5090565b5b80821115612968576000816000905550600101612950565b5090565b600061297f61297a846135c4565b61359f565b90508281526020810184848401111561299757600080fd5b6129a2848285613836565b509392505050565b60006129bd6129b8846135f5565b61359f565b9050828152602081018484840111156129d557600080fd5b6129e0848285613836565b509392505050565b6000813590506129f781614034565b92915050565b600081359050612a0c8161404b565b92915050565b600081359050612a2181614062565b92915050565b600081519050612a3681614062565b92915050565b600082601f830112612a4d57600080fd5b8135612a5d84826020860161296c565b91505092915050565b600082601f830112612a7757600080fd5b8135612a878482602086016129aa565b91505092915050565b600081359050612a9f81614079565b92915050565b600060208284031215612ab757600080fd5b6000612ac5848285016129e8565b91505092915050565b60008060408385031215612ae157600080fd5b6000612aef858286016129e8565b9250506020612b00858286016129e8565b9150509250929050565b600080600060608486031215612b1f57600080fd5b6000612b2d868287016129e8565b9350506020612b3e868287016129e8565b9250506040612b4f86828701612a90565b9150509250925092565b60008060008060808587031215612b6f57600080fd5b6000612b7d878288016129e8565b9450506020612b8e878288016129e8565b9350506040612b9f87828801612a90565b925050606085013567ffffffffffffffff811115612bbc57600080fd5b612bc887828801612a3c565b91505092959194509250565b60008060408385031215612be757600080fd5b6000612bf5858286016129e8565b9250506020612c06858286016129fd565b9150509250929050565b60008060408385031215612c2357600080fd5b6000612c31858286016129e8565b9250506020612c4285828601612a90565b9150509250929050565b600060208284031215612c5e57600080fd5b6000612c6c84828501612a12565b91505092915050565b600060208284031215612c8757600080fd5b6000612c9584828501612a27565b91505092915050565b600060208284031215612cb057600080fd5b600082013567ffffffffffffffff811115612cca57600080fd5b612cd684828501612a66565b91505092915050565b600060208284031215612cf157600080fd5b6000612cff84828501612a90565b91505092915050565b6000612d148383613187565b60208301905092915050565b612d29816137c2565b82525050565b6000612d3a82613636565b612d448185613664565b9350612d4f83613626565b8060005b83811015612d80578151612d678882612d08565b9750612d7283613657565b925050600181019050612d53565b5085935050505092915050565b612d96816137d4565b82525050565b6000612da782613641565b612db18185613675565b9350612dc1818560208601613845565b612dca81613a11565b840191505092915050565b6000612de08261364c565b612dea8185613691565b9350612dfa818560208601613845565b612e0381613a11565b840191505092915050565b6000612e198261364c565b612e2381856136a2565b9350612e33818560208601613845565b80840191505092915050565b6000612e4c602b83613691565b9150612e5782613a22565b604082019050919050565b6000612e6f603283613691565b9150612e7a82613a71565b604082019050919050565b6000612e92602683613691565b9150612e9d82613ac0565b604082019050919050565b6000612eb5602583613691565b9150612ec082613b0f565b604082019050919050565b6000612ed8601c83613691565b9150612ee382613b5e565b602082019050919050565b6000612efb602483613691565b9150612f0682613b87565b604082019050919050565b6000612f1e601983613691565b9150612f2982613bd6565b602082019050919050565b6000612f41602283613691565b9150612f4c82613bff565b604082019050919050565b6000612f64601583613691565b9150612f6f82613c4e565b602082019050919050565b6000612f87602583613691565b9150612f9282613c77565b604082019050919050565b6000612faa602c83613691565b9150612fb582613cc6565b604082019050919050565b6000612fcd603883613691565b9150612fd882613d15565b604082019050919050565b6000612ff0602a83613691565b9150612ffb82613d64565b604082019050919050565b6000613013602983613691565b915061301e82613db3565b604082019050919050565b6000613036602083613691565b915061304182613e02565b602082019050919050565b6000613059601983613691565b915061306482613e2b565b602082019050919050565b600061307c602c83613691565b915061308782613e54565b604082019050919050565b600061309f602083613691565b91506130aa82613ea3565b602082019050919050565b60006130c2602f83613691565b91506130cd82613ecc565b604082019050919050565b60006130e5602183613691565b91506130f082613f1b565b604082019050919050565b6000613108600083613686565b915061311382613f6a565b600082019050919050565b600061312b601083613691565b915061313682613f6d565b602082019050919050565b600061314e603183613691565b915061315982613f96565b604082019050919050565b6000613171602c83613691565b915061317c82613fe5565b604082019050919050565b6131908161382c565b82525050565b61319f8161382c565b82525050565b60006131b18285612e0e565b91506131bd8284612e0e565b91508190509392505050565b60006131d4826130fb565b9150819050919050565b60006020820190506131f36000830184612d20565b92915050565b600060808201905061320e6000830187612d20565b61321b6020830186612d20565b6132286040830185613196565b818103606083015261323a8184612d9c565b905095945050505050565b6000602082019050818103600083015261325f8184612d2f565b905092915050565b600060208201905061327c6000830184612d8d565b92915050565b6000602082019050818103600083015261329c8184612dd5565b905092915050565b600060208201905081810360008301526132bd81612e3f565b9050919050565b600060208201905081810360008301526132dd81612e62565b9050919050565b600060208201905081810360008301526132fd81612e85565b9050919050565b6000602082019050818103600083015261331d81612ea8565b9050919050565b6000602082019050818103600083015261333d81612ecb565b9050919050565b6000602082019050818103600083015261335d81612eee565b9050919050565b6000602082019050818103600083015261337d81612f11565b9050919050565b6000602082019050818103600083015261339d81612f34565b9050919050565b600060208201905081810360008301526133bd81612f57565b9050919050565b600060208201905081810360008301526133dd81612f7a565b9050919050565b600060208201905081810360008301526133fd81612f9d565b9050919050565b6000602082019050818103600083015261341d81612fc0565b9050919050565b6000602082019050818103600083015261343d81612fe3565b9050919050565b6000602082019050818103600083015261345d81613006565b9050919050565b6000602082019050818103600083015261347d81613029565b9050919050565b6000602082019050818103600083015261349d8161304c565b9050919050565b600060208201905081810360008301526134bd8161306f565b9050919050565b600060208201905081810360008301526134dd81613092565b9050919050565b600060208201905081810360008301526134fd816130b5565b9050919050565b6000602082019050818103600083015261351d816130d8565b9050919050565b6000602082019050818103600083015261353d8161311e565b9050919050565b6000602082019050818103600083015261355d81613141565b9050919050565b6000602082019050818103600083015261357d81613164565b9050919050565b60006020820190506135996000830184613196565b92915050565b60006135a96135ba565b90506135b582826138aa565b919050565b6000604051905090565b600067ffffffffffffffff8211156135df576135de6139e2565b5b6135e882613a11565b9050602081019050919050565b600067ffffffffffffffff8211156136105761360f6139e2565b5b61361982613a11565b9050602081019050919050565b6000819050602082019050919050565b600081519050919050565b600081519050919050565b600081519050919050565b6000602082019050919050565b600082825260208201905092915050565b600082825260208201905092915050565b600081905092915050565b600082825260208201905092915050565b600081905092915050565b60006136b88261382c565b91506136c38361382c565b9250827fffffffffffffffffffffffffffffffffffffffffffffffffffffffffffffffff038211156136f8576136f7613955565b5b828201905092915050565b600061370e8261382c565b91506137198361382c565b92508261372957613728613984565b5b828204905092915050565b600061373f8261382c565b915061374a8361382c565b9250817fffffffffffffffffffffffffffffffffffffffffffffffffffffffffffffffff048311821515161561378357613782613955565b5b828202905092915050565b60006137998261382c565b91506137a48361382c565b9250828210156137b7576137b6613955565b5b828203905092915050565b60006137cd8261380c565b9050919050565b60008115159050919050565b60007fffffffff0000000000000000000000000000000000000000000000000000000082169050919050565b600073ffffffffffffffffffffffffffffffffffffffff82169050919050565b6000819050919050565b82818337600083830152505050565b60005b83811015613863578082015181840152602081019050613848565b83811115613872576000848401525b50505050565b6000600282049050600182168061389057607f821691505b602082108114156138a4576138a36139b3565b5b50919050565b6138b382613a11565b810181811067ffffffffffffffff821117156138d2576138d16139e2565b5b80604052505050565b60006138e68261382c565b91507fffffffffffffffffffffffffffffffffffffffffffffffffffffffffffffffff82141561391957613918613955565b5b600182019050919050565b600061392f8261382c565b915061393a8361382c565b92508261394a57613949613984565b5b828206905092915050565b7f4e487b7100000000000000000000000000000000000000000000000000000000600052601160045260246000fd5b7f4e487b7100000000000000000000000000000000000000000000000000000000600052601260045260246000fd5b7f4e487b7100000000000000000000000000000000000000000000000000000000600052602260045260246000fd5b7f4e487b7100000000000000000000000000000000000000000000000000000000600052604160045260246000fd5b6000601f19601f8301169050919050565b7f455243373231456e756d657261626c653a206f776e657220696e646578206f7560008201527f74206f6620626f756e6473000000000000000000000000000000000000000000602082015250565b7f4552433732313a207472616e7366657220746f206e6f6e20455243373231526560008201527f63656976657220696d706c656d656e7465720000000000000000000000000000602082015250565b7f4f776e61626c653a206e6577206f776e657220697320746865207a65726f206160008201527f6464726573730000000000000000000000000000000000000000000000000000602082015250565b7f4552433732313a207472616e736665722066726f6d20696e636f72726563742060008201527f6f776e6572000000000000000000000000000000000000000000000000000000602082015250565b7f4552433732313a20746f6b656e20616c7265616479206d696e74656400000000600082015250565b7f4552433732313a207472616e7366657220746f20746865207a65726f2061646460008201527f7265737300000000000000000000000000000000000000000000000000000000602082015250565b7f4552433732313a20617070726f766520746f2063616c6c657200000000000000600082015250565b7f4e6f7420656e6f75676820657468657220746f207075726368617365204e465460008201527f732e000000000000000000000000000000000000000000000000000000000000602082015250565b7f4e6f7420656e6f756768204e465473206c656674210000000000000000000000600082015250565b7f43616e6e6f74206d696e7420737065636966696564206e756d626572206f662060008201527f4e4654732e000000000000000000000000000000000000000000000000000000602082015250565b7f4552433732313a206f70657261746f7220717565727920666f72206e6f6e657860008201527f697374656e7420746f6b656e0000000000000000000000000000000000000000602082015250565b7f4552433732313a20617070726f76652063616c6c6572206973206e6f74206f7760008201527f6e6572206e6f7220617070726f76656420666f7220616c6c0000000000000000602082015250565b7f4552433732313a2062616c616e636520717565727920666f7220746865207a6560008201527f726f206164647265737300000000000000000000000000000000000000000000602082015250565b7f4552433732313a206f776e657220717565727920666f72206e6f6e657869737460008201527f656e7420746f6b656e0000000000000000000000000000000000000000000000602082015250565b7f4552433732313a206d696e7420746f20746865207a65726f2061646472657373600082015250565b7f4e6f206574686572206c65667420746f20776974686472617700000000000000600082015250565b7f4552433732313a20617070726f76656420717565727920666f72206e6f6e657860008201527f697374656e7420746f6b656e0000000000000000000000000000000000000000602082015250565b7f4f776e61626c653a2063616c6c6572206973206e6f7420746865206f776e6572600082015250565b7f4552433732314d657461646174613a2055524920717565727920666f72206e6f60008201527f6e6578697374656e7420746f6b656e0000000000000000000000000000000000602082015250565b7f4552433732313a20617070726f76616c20746f2063757272656e74206f776e6560008201527f7200000000000000000000000000000000000000000000000000000000000000602082015250565b50565b7f5472616e73666572206661696c65642e00000000000000000000000000000000600082015250565b7f4552433732313a207472616e736665722063616c6c6572206973206e6f74206f60008201527f776e6572206e6f7220617070726f766564000000000000000000000000000000602082015250565b7f455243373231456e756d657261626c653a20676c6f62616c20696e646578206f60008201527f7574206f6620626f756e64730000000000000000000000000000000000000000602082015250565b61403d816137c2565b811461404857600080fd5b50565b614054816137d4565b811461405f57600080fd5b50565b61406b816137e0565b811461407657600080fd5b50565b6140828161382c565b811461408d57600080fd5b5056fea2646970667358221220f034c49cc9dfadf7905192445394c1700aad8fe1378f82f22ed86a64e585032564736f6c63430008040033",
    "linkReferences": {},
    "deployedLinkReferences": {}
}